:100000000C9434000C9449000C9449000C94490061
:100010000C9449000C9449000C9449000C9449003C
:100020000C9449000C9449000C9449000C9449002C
:100030000C9449000C9449000C9449000C9449001C
:100040000C9449000C9449000C9449000C9449000C
:100050000C9449000C9449000C9449000C944900FC
:100060000C9449000C94490011241FBECFEFD8E036
:10007000DEBFCDBF11E0A0E0B1E0EAE8FEE002C0E3
:1000800005900D92AC32B107D9F70E94A9020C94E9
:1000900043070C940000EAE7F0E0808180688083E9
:1000A00080818E7F80838081826080838081846074
:1000B0008083ECE7F0E080818064808380818F77AB
:1000C000808380818F7D80830895ECE7F0E09081CC
:1000D000907F8F70892B8083EAE7F0E080818064D5
:1000E0008083808184FFFDCF80917800909179009A
:1000F0000895589884FF02C05A9A01C05A9885FF03
:1001000002C05B9A01C05B9886FF02C05C9A01C086
:100110005C98882314F45F9A01C05F98599AEFECB9
:10012000F7E03197F1F700C000005998EFEDFEE2DB
:100130003197F1F700C0000080FF02C05A9A01C059
:100140005A9881FF02C05B9A01C05B9882FF02C08F
:100150005C9A01C05C9883FF02C05F9A01C05F98FF
:10016000599A8FEC97E00197F1F700C00000599879
:1001700008958AB18FEF8AB98FE19EE40197F1F774
:1001800000C00000599883E30E94790082E30E9436
:10019000790088E20E94790086E00E9479008CE074
:1001A0000E94790081E00E9479008FED9EE2019724
:1001B000F1F700C000000895CF93DF9300D0CDB7D2
:1001C000DEB790E8998390EC9A83FE01E80FF11D69
:1001D00061508081860F0E9479008FE39FE1019733
:1001E000F1F700C000000F900F90DF91CF910895BC
:1001F000EFECF7E03197F1F700C00000589A84FF68
:1002000002C05A9A01C05A9885FF02C05B9A01C089
:100210005B9886FF02C05C9A01C05C98882314F446
:100220005F9A01C05F98599AEFECF7E03197F1F7C8
:1002300000C000005998EFECF7E03197F1F700C0EB
:10024000000080FF02C05A9A01C05A9881FF02C084
:100250005B9A01C05B9882FF02C05C9A01C05C9807
:1002600083FF02C05F9A01C05F98599A8FEC97E0B4
:100270000197F1F700C00000599808950F931F935C
:10028000CF93DF93FC01808181110AC011C00E94CD
:10029000F8000C171D0761F089918111F8CF08C093
:1002A0008F010E94F800E8012196005E1F4FF4CFF5
:1002B000DF91CF911F910F9108952F923F924F920E
:1002C0005F926F927F928F929F92AF92BF92CF92E6
:1002D000DF92EF92FF920F931F93CF93DF93CDB7EF
:1002E000DEB729970FB6F894DEBF0FBECDBF2983C6
:1002F0003A834B835C836D837E83382E9F83A0E09B
:100300000E94370721F480E30E94F800D5C0212C19
:1003100018861986912C812C712C612C512C412C22
:1003200028853985492D582D672D762D852D942DBD
:1003300001E00E941507822E932E49875887B62F19
:10034000A72FF82FE92F02E00E941507A22EB32E47
:10035000C42ED52EE62EF72E082F192F282D392D35
:10036000498558856B2F7A2F8F2F9E2F0E942E073D
:1003700029873887942E852E762E672E582E492E63
:100380000F2EFAE0AF2EF02DB12CC12CD12CE12C88
:10039000F12C00E010E029813A814B815C816D8174
:1003A0007E81832D9F810E94B606A984B884C92CC2
:1003B000D82CE72CF62C052D142D0E942E0728870B
:1003C0003987942E852E762E672E582E492E0F2E85
:1003D000FAE0AF2EF02DB12CC12CD12CE12CF12C58
:1003E00000E010E029813A814B815C816D817E8142
:1003F000832D9F810E94B80629833A834B835C83B7
:100400006D837E83382E9F832394A0E00E9437075C
:1004100009F086CF8985E1E02885382F492D582DB0
:10042000672D762D852D942D0E94370709F4E0E085
:10043000E11106C081E0211001C080E08823E1F1D4
:10044000332433940F2EFAE0AF2EF02DB12CC12CB3
:10045000D12CE12CF12C00E010E028853985492DC4
:10046000582D672D762D852D942D0E94B60680E39C
:10047000820F0E94F80028853985492D582D672D57
:10048000762D852D942D0E94B80628873987942EC5
:10049000852E762E672E582E492E2A94E32DA0E025
:1004A0000E94370709F4E0E0E111CCCF832D211041
:1004B00001C080E08111C6CF29960FB6F894DEBF47
:1004C0000FBECDBFDF91CF911F910F91FF90EF90A5
:1004D000DF90CF90BF90AF909F908F907F906F9064
:1004E0005F904F903F902F900895CF92DF92EF92C0
:1004F000FF92CF936B017C01C42F473008F0C6E018
:10050000C701B6010E94FA040E945D018EE20E94BA
:10051000F800C701B6010E9431050E9460059B01E9
:10052000AC01C701B6010E941604CC2341F020E0C3
:1005300030E040E251E40E940306C150C1F70E943E
:10054000FA040E945D01CF91FF90EF90DF90CF9071
:100550000895209A219A0E94B90063E081E00E94E8
:10056000DC0038980E944B000E945F036AE077ED40
:1005700083E791E40E9476033C9A3D9A559A569AF5
:1005800061E081E00E94DC0080E091E00E943E0199
:10059000CFEF80E00E946500BC0180E090E00E9407
:1005A000600520E030EC4FE754E40E94830420E033
:1005B00030E048E452E40E9403066B017C0161E0F4
:1005C00081E00E94DC0080E091E00E943E0142E078
:1005D000C701B6010E947502C701B6010E947603E9
:1005E00061E082E00E94DC0020E030E04CE052E478
:1005F000C701B6010E94FE0588230CF445C0289A65
:10060000299A20E030E04CE052E4C701B6010E9494
:10061000160420E030E040E751E40E94830420E02B
:1006200030E048EC52E40E9403060E943105F62EA9
:10063000449A459AC69FB0011124072E000C880BDE
:10064000990B0E94620520E030E048EC52E40E94E1
:1006500083040E94310500E020E040E081E00E9438
:10066000E40386E091E00E943E012F2D30E040E05F
:1006700050E060E070E080E090E00E945D0182E187
:1006800091E00E943E0185CF289829988BE191E066
:100690000E943E014498459800E020E040E060E080
:1006A00080E00E94E40375CFCF93C62F2A980E9462
:1006B000DE038C2F0E94DE032A9ACF9108950E94B8
:1006C000D7036FE089E00E9454036FE08AE00E9444
:1006D000540363E08BE00E94540361E08CE00E94CD
:1006E000540362E081E00E94540308958F929F9228
:1006F000AF92BF92CF92DF92EF92FF9220E030E074
:1007000048EC52E40E9403064B015C010E94310553
:100710000F2EFAE0CF2ED12CE12CF12CF02DA701D9
:1007200096010E94940684E00E94540320E030E089
:1007300040E251E4C501B4010E9483044B015C0115
:100740000E943105A70196010E94940683E00E9451
:10075000540320E030E040E251E4C501B4010E94BE
:1007600083044B015C010E943105A70196010E94A0
:100770009406606882E00E94540320E030E040E28A
:1007800051E4C501B4010E9483040E943105A70110
:1007900096010E94940681E00E945403FF90EF901E
:1007A000DF90CF90BF90AF909F908F90089584B1CD
:1007B0008F7E8C6284B981E58CBD08958EBD0DB4A9
:1007C00007FEFDCF8EB508950F9314BC15BC16BC63
:1007D00095B5987F8770892B85BD67BD48BD662319
:1007E00059F084B5806484BD84B5806884BD2111CE
:1007F00003C084B58F7B84BD442359F084B58061E8
:1008000084BD84B5806284BD011103C084B58F7E30
:1008100084BD84B5816084BD84B5826084BD85B5A6
:10082000877F85BD10926E000F9108955058BB27A9
:10083000AA270E942E040C94C4050E94B60538F025
:100840000E94BD0520F039F49F3F19F426F40C9462
:10085000A3050EF4E095E7FB0C949D05E92F0E949B
:10086000D50558F3BA17620773078407950720F078
:1008700079F4A6F50C94F7050EF4E0950B2EBA2F3B
:10088000A02D0B01B90190010C01CA01A001112496
:10089000FF27591B99F0593F50F4503E68F11A1642
:1008A000F040A22F232F342F4427585FF3CF4695D3
:1008B00037952795A795F0405395C9F77EF41F16F5
:1008C000BA0B620B730B840BBAF09150A1F0FF0FBF
:1008D000BB1F661F771F881FC2F70EC0BA0F621FAB
:1008E000731F841F48F4879577956795B795F7959B
:1008F0009E3F08F0B0CF9395880F08F09927EE0F30
:100900009795879508950E9497040C94C4050E94BA
:10091000BD0558F00E94B60540F029F45F3F29F06C
:100920000C949D0551110C94F8050C94A3050E949C
:10093000D50568F39923B1F3552391F3951B550B16
:10094000BB27AA2762177307840738F09F5F5F4FA2
:10095000220F331F441FAA1FA9F335D00E2E3AF0E1
:10096000E0E832D091505040E695001CCAF72BD0F9
:10097000FE2F29D0660F771F881FBB1F261737074A
:100980004807AB07B0E809F0BB0B802DBF01FF277C
:1009900093585F4F3AF09E3F510578F00C949D05B7
:1009A0000C94F8055F3FE4F3983ED4F38695779571
:1009B0006795B795F7959F5FC9F7880F911D969535
:1009C000879597F90895E1E0660F771F881FBB1F91
:1009D000621773078407BA0720F0621B730B840B3E
:1009E000BA0BEE1F88F7E0950895BEE304D008F433
:1009F00090E80895BFE322273327A9010E94DD056F
:100A000060F19F5748F1B91740F1BFE3B91B99272F
:100A1000B8503AF4660F771F881F991FB395D2F329
:100A200016C0B8504AF0232F342F452F562F672F6A
:100A3000782F8827B850BAF7B85F49F08695779530
:100A400067955795479537952795BA95B9F716F451
:100A50000E94A60588940895889460E070E0CB0118
:100A600008950E94DD0588F09F5798F0B92F9927C7
:100A7000B751B0F0E1F0660F771F881F991F1AF089
:100A8000BA95C9F714C0B13091F00E94F705B1E0F2
:100A900008950C94F705672F782F8827B85F39F0F1
:100AA000B93FCCF3869577956795B395D9F73EF422
:100AB00090958095709561957F4F8F4F9F4F0895CA
:100AC000E89409C097FB3EF49095809570956195E8
:100AD0007F4F8F4F9F4F9923A9F0F92F96E9BB279E
:100AE0009395F695879577956795B795F111F8CF1A
:100AF000FAF4BB0F11F460FF1BC06F5F7F4F8F4F85
:100B00009F4F16C0882311F096E911C0772321F07A
:100B10009EE8872F762F05C0662371F096E8862F12
:100B200070E060E02AF09A95660F771F881FDAF769
:100B3000880F9695879597F9089597F99F6780E8AC
:100B400070E060E008959FEF80EC089590958095A7
:100B50007095609550954095309521953F4F4F4F3A
:100B60005F4F6F4F7F4F8F4F9F4F089500240A9420
:100B70001616170618060906089500240A94121678
:100B80001306140605060895092E0394000C11F4AB
:100B9000882352F0BB0F40F4BF2B11F460FF04C058
:100BA0006F5F7F4F8F4F9F4F089557FD9058440FB1
:100BB000551F59F05F3F71F04795880F97FB991FBC
:100BC00061F09F3F79F08795089512161306140679
:100BD000551FF2CF4695F1DF08C016161706180606
:100BE000991FF1CF86957105610508940895E894E1
:100BF000BB2766277727CB0197F908950E947006D7
:100C000008F48FEF08950E9416060C94C4050E9404
:100C1000B60538F00E94BD0520F0952311F00C9424
:100C20009D050C94A30511240C94F8050E94D5058C
:100C300070F3959FC1F3950F50E0551F629FF0012F
:100C4000729FBB27F00DB11D639FAA27F00DB11D48
:100C5000AA1F649F6627B00DA11D661F829F2227D1
:100C6000B00DA11D621F739FB00DA11D621F839F58
:100C7000A00D611D221F749F3327A00D611D231F2E
:100C8000849F600D211D822F762F6A2F11249F577C
:100C900050409AF0F1F088234AF0EE0FFF1FBB1F7F
:100CA000661F771F881F91505040A9F79E3F51053E
:100CB00080F00C949D050C94F8055F3FE4F3983E9A
:100CC000D4F3869577956795B795F795E7959F5FE8
:100CD000C1F7FE2B880F911D9695879597F908957A
:100CE000990F0008550FAA0BE0E8FEEF161617063D
:100CF000E807F907C0F012161306E407F50798F0A5
:100D0000621B730B840B950B39F40A2661F0232BBD
:100D1000242B252B21F408950A2609F4A140A69539
:100D20008FEF811D811D0895A1E21A2EAA1BBB1B06
:100D3000FD010DC0AA1FBB1FEE1FFF1FA217B307A7
:100D4000E407F50720F0A21BB30BE40BF50B661FBD
:100D5000771F881F991F1A9469F760957095809581
:100D600090959B01AC01BD01CF010895689401C02D
:100D7000E8948F929F92CF93DF930E94C406DF91F5
:100D8000CF919F908F90089588249924F401E401D5
:100D9000B0E49F93AA279A158B049C04ED05FE05E9
:100DA000CF05D007A10798F4AD2FDC2FCF2FFE2F52
:100DB000E92D982C892E982F872F762F652F542F69
:100DC000432F322F2227B85031F7BF9127C01B2E57
:100DD000BF91BB27220F331F441F551F661F771F6C
:100DE000881F991F881C991CEE1FFF1FCC1FDD1F39
:100DF000AA1FBB1F8A149B04EC05FD05CE05DF0569
:100E0000A007B10748F08A189B08EC09FD09CE0934
:100E1000DF09A00BB10B21601A94E1F62EF49401C6
:100E2000AF01BE01CD01000C08950F93083090F082
:100E3000982F872F762F652F542F432F322F22275D
:100E40000850F4CF220F331F441F551F661F771F12
:100E5000881F991F0A95B2F70F9108952A0D3B1D1F
:100E60004C1D5D1D6E1D7F1D801F911F0895002468
:100E7000A7FD00942A173005400550056005700550
:0A0E8000800590050895F894FFCF57
:100E8A0054656D703A0064757479206379636C6592
:100E9A003A002520202020202020006D6F746F72D8
:0C0EAA00206973206F6666202020200065
:00000001FF
